{
  "_format": "hh-sol-artifact-1",
  "contractName": "RPS",
  "sourceName": "contracts/RPS.sol",
  "abi": [
    {
      "inputs": [
        {
          "internalType": "uint256",
          "name": "_choice",
          "type": "uint256"
        }
      ],
      "name": "playGame",
      "outputs": [
        {
          "internalType": "uint256",
          "name": "",
          "type": "uint256"
        }
      ],
      "stateMutability": "payable",
      "type": "function"
    }
  ],
  "bytecode": "0x608060405234801561001057600080fd5b506103bb806100206000396000f3fe60806040526004361061001e5760003560e01c80635873533d14610023575b600080fd5b61003d60048036038101906100389190610196565b610053565b60405161004a91906101d2565b60405180910390f35b60008061005e61011c565b9050808303610071576001915050610117565b6000831480156100815750600181145b8061009857506001831480156100975750600281145b5b806100af57506002831480156100ae5750600081145b5b15610111573373ffffffffffffffffffffffffffffffffffffffff166108fc6002346100db919061021c565b9081150290604051600060405180830381858888f19350505050158015610106573d6000803e3d6000fd5b506002915050610117565b60009150505b919050565b6000600342336040516020016101339291906102f9565b6040516020818303038152906040528051906020012060001c6101569190610354565b905090565b600080fd5b6000819050919050565b61017381610160565b811461017e57600080fd5b50565b6000813590506101908161016a565b92915050565b6000602082840312156101ac576101ab61015b565b5b60006101ba84828501610181565b91505092915050565b6101cc81610160565b82525050565b60006020820190506101e760008301846101c3565b92915050565b7f4e487b7100000000000000000000000000000000000000000000000000000000600052601160045260246000fd5b600061022782610160565b915061023283610160565b925082820261024081610160565b91508282048414831517610257576102566101ed565b5b5092915050565b6000819050919050565b61027961027482610160565b61025e565b82525050565b600073ffffffffffffffffffffffffffffffffffffffff82169050919050565b60006102aa8261027f565b9050919050565b60008160601b9050919050565b60006102c9826102b1565b9050919050565b60006102db826102be565b9050919050565b6102f36102ee8261029f565b6102d0565b82525050565b60006103058285610268565b60208201915061031582846102e2565b6014820191508190509392505050565b7f4e487b7100000000000000000000000000000000000000000000000000000000600052601260045260246000fd5b600061035f82610160565b915061036a83610160565b92508261037a57610379610325565b5b82820690509291505056fea26469706673582212200996807ded536399a1ed163f2bdb13bcf656d974a59ccba8709a6b17ad56570564736f6c63430008110033",
  "linkReferences": {},
  "deployedLinkReferences": {}
}