{
  "_format": "hh-sol-artifact-1",
  "contractName": "RPS",
  "sourceName": "contracts/RPS.sol",
  "abi": [
    {
      "inputs": [],
      "stateMutability": "payable",
      "type": "constructor"
    },
    {
      "anonymous": false,
      "inputs": [
        {
          "indexed": false,
          "internalType": "uint256",
          "name": "computer",
          "type": "uint256"
        },
        {
          "indexed": false,
          "internalType": "string",
          "name": "message",
          "type": "string"
        }
      ],
      "name": "GameResult",
      "type": "event"
    },
    {
      "inputs": [
        {
          "internalType": "uint256",
          "name": "_choice",
          "type": "uint256"
        }
      ],
      "name": "playGame",
      "outputs": [],
      "stateMutability": "payable",
      "type": "function"
    }
  ],
  "bytecode": "0x6080604052336000806101000a81548173ffffffffffffffffffffffffffffffffffffffff021916908373ffffffffffffffffffffffffffffffffffffffff16021790555061064e806100536000396000f3fe60806040526004361061001e5760003560e01c80635873533d14610023575b600080fd5b61003d600480360381019061003891906102c5565b61003f565b005b600061004961024b565b90508082036100d5573373ffffffffffffffffffffffffffffffffffffffff166108fc349081150290604051600060405180830381858888f19350505050158015610098573d6000803e3d6000fd5b507f915c9b317ec82fd7b1d2a0457db5dc9c1b3ccee6adf6819ac8d56335883372cf816040516100c8919061035e565b60405180910390a1610247565b6000821480156100e55750600281145b806100fc57506001821480156100fb5750600081145b5b8061011357506002821480156101125750600181145b5b156101a7573373ffffffffffffffffffffffffffffffffffffffff166108fc60023461013f91906103bb565b9081150290604051600060405180830381858888f1935050505015801561016a573d6000803e3d6000fd5b507f915c9b317ec82fd7b1d2a0457db5dc9c1b3ccee6adf6819ac8d56335883372cf8160405161019a9190610449565b60405180910390a1610246565b60008054906101000a900473ffffffffffffffffffffffffffffffffffffffff1673ffffffffffffffffffffffffffffffffffffffff166108fc349081150290604051600060405180830381858888f1935050505015801561020d573d6000803e3d6000fd5b507f915c9b317ec82fd7b1d2a0457db5dc9c1b3ccee6adf6819ac8d56335883372cf8160405161023d91906104c3565b60405180910390a15b5b5050565b60006003423360405160200161026292919061058c565b6040516020818303038152906040528051906020012060001c61028591906105e7565b905090565b600080fd5b6000819050919050565b6102a28161028f565b81146102ad57600080fd5b50565b6000813590506102bf81610299565b92915050565b6000602082840312156102db576102da61028a565b5b60006102e9848285016102b0565b91505092915050565b6102fb8161028f565b82525050565b600082825260208201905092915050565b7f6472617700000000000000000000000000000000000000000000000000000000600082015250565b6000610348600483610301565b915061035382610312565b602082019050919050565b600060408201905061037360008301846102f2565b81810360208301526103848161033b565b905092915050565b7f4e487b7100000000000000000000000000000000000000000000000000000000600052601160045260246000fd5b60006103c68261028f565b91506103d18361028f565b92508282026103df8161028f565b915082820484148315176103f6576103f561038c565b5b5092915050565b7f706c617965722077696e00000000000000000000000000000000000000000000600082015250565b6000610433600a83610301565b915061043e826103fd565b602082019050919050565b600060408201905061045e60008301846102f2565b818103602083015261046f81610426565b905092915050565b7f706c61796572206c6f7365000000000000000000000000000000000000000000600082015250565b60006104ad600b83610301565b91506104b882610477565b602082019050919050565b60006040820190506104d860008301846102f2565b81810360208301526104e9816104a0565b905092915050565b6000819050919050565b61050c6105078261028f565b6104f1565b82525050565b600073ffffffffffffffffffffffffffffffffffffffff82169050919050565b600061053d82610512565b9050919050565b60008160601b9050919050565b600061055c82610544565b9050919050565b600061056e82610551565b9050919050565b61058661058182610532565b610563565b82525050565b600061059882856104fb565b6020820191506105a88284610575565b6014820191508190509392505050565b7f4e487b7100000000000000000000000000000000000000000000000000000000600052601260045260246000fd5b60006105f28261028f565b91506105fd8361028f565b92508261060d5761060c6105b8565b5b82820690509291505056fea26469706673582212205cedee5e1fe3733bb09cdb99257d41ff77fe84aa39aaf927b740ee8f11301e4564736f6c63430008110033",
  "linkReferences": {},
  "deployedLinkReferences": {}
}