{
  "_format": "hh-sol-artifact-1",
  "contractName": "RPS",
  "sourceName": "contracts/RPS.sol",
  "abi": [
    {
      "inputs": [],
      "stateMutability": "nonpayable",
      "type": "constructor"
    },
    {
      "inputs": [],
      "name": "balance",
      "outputs": [
        {
          "internalType": "uint256",
          "name": "",
          "type": "uint256"
        }
      ],
      "stateMutability": "view",
      "type": "function"
    },
    {
      "inputs": [],
      "name": "minBet",
      "outputs": [
        {
          "internalType": "uint256",
          "name": "",
          "type": "uint256"
        }
      ],
      "stateMutability": "view",
      "type": "function"
    },
    {
      "inputs": [],
      "name": "newGame",
      "outputs": [],
      "stateMutability": "payable",
      "type": "function"
    }
  ],
  "bytecode": "0x608060405234801561001057600080fd5b5067016345785d8a000060018190555061024e8061002f6000396000f3fe6080604052600436106100345760003560e01c80637d03f5f3146100395780639619367d14610043578063b69ef8a81461006e575b600080fd5b610041610099565b005b34801561004f57600080fd5b506100586100f8565b604051610065919061011d565b60405180910390f35b34801561007a57600080fd5b506100836100fe565b604051610090919061011d565b60405180910390f35b6001543410156100de576040517f08c379a00000000000000000000000000000000000000000000000000000000081526004016100d590610195565b60405180910390fd5b346000808282546100ef91906101e4565b92505081905550565b60015481565b60005481565b6000819050919050565b61011781610104565b82525050565b6000602082019050610132600083018461010e565b92915050565b600082825260208201905092915050565b7f496e73756666696369656e742062657400000000000000000000000000000000600082015250565b600061017f601083610138565b915061018a82610149565b602082019050919050565b600060208201905081810360008301526101ae81610172565b9050919050565b7f4e487b7100000000000000000000000000000000000000000000000000000000600052601160045260246000fd5b60006101ef82610104565b91506101fa83610104565b9250828201905080821115610212576102116101b5565b5b9291505056fea264697066735822122097f6d98aaf8a99e1fdf471748a2c315a26b8b3078ce58b7c3930960306fc5bd964736f6c63430008110033",
  "linkReferences": {},
  "deployedLinkReferences": {}
}