{
  "_format": "hh-sol-artifact-1",
  "contractName": "RPS",
  "sourceName": "contracts/RPS.sol",
  "abi": [
    {
      "inputs": [],
      "name": "balance",
      "outputs": [
        {
          "internalType": "uint256",
          "name": "",
          "type": "uint256"
        }
      ],
      "stateMutability": "view",
      "type": "function"
    },
    {
      "inputs": [],
      "name": "newGame",
      "outputs": [],
      "stateMutability": "payable",
      "type": "function"
    }
  ],
  "bytecode": "0x608060405234801561001057600080fd5b50610211806100206000396000f3fe6080604052600436106100295760003560e01c80637d03f5f31461002e578063b69ef8a814610038575b600080fd5b610036610063565b005b34801561004457600080fd5b5061004d6100c1565b60405161005a91906100e0565b60405180910390f35b60003410156100a7576040517f08c379a000000000000000000000000000000000000000000000000000000000815260040161009e90610158565b60405180910390fd5b346000808282546100b891906101a7565b92505081905550565b60005481565b6000819050919050565b6100da816100c7565b82525050565b60006020820190506100f560008301846100d1565b92915050565b600082825260208201905092915050565b7f6d6f7265207468616e207a65726f20657468657220706c730000000000000000600082015250565b60006101426018836100fb565b915061014d8261010c565b602082019050919050565b6000602082019050818103600083015261017181610135565b9050919050565b7f4e487b7100000000000000000000000000000000000000000000000000000000600052601160045260246000fd5b60006101b2826100c7565b91506101bd836100c7565b92508282019050808211156101d5576101d4610178565b5b9291505056fea2646970667358221220ce382ac7f26835b9c274b39e7d9cb1c1f291beb00f0dda310d6ef26a1dcb663364736f6c63430008110033",
  "linkReferences": {},
  "deployedLinkReferences": {}
}