{
    "_format": "hh-sol-artifact-1",
    "contractName": "MyEpicNFT",
    "sourceName": "contracts/MyEpicNFT.sol",
    "abi": [
        {
            "inputs": [],
            "stateMutability": "nonpayable",
            "type": "constructor"
        },
        {
            "anonymous": false,
            "inputs": [
                {
                    "indexed": true,
                    "internalType": "address",
                    "name": "owner",
                    "type": "address"
                },
                {
                    "indexed": true,
                    "internalType": "address",
                    "name": "approved",
                    "type": "address"
                },
                {
                    "indexed": true,
                    "internalType": "uint256",
                    "name": "tokenId",
                    "type": "uint256"
                }
            ],
            "name": "Approval",
            "type": "event"
        },
        {
            "anonymous": false,
            "inputs": [
                {
                    "indexed": true,
                    "internalType": "address",
                    "name": "owner",
                    "type": "address"
                },
                {
                    "indexed": true,
                    "internalType": "address",
                    "name": "operator",
                    "type": "address"
                },
                {
                    "indexed": false,
                    "internalType": "bool",
                    "name": "approved",
                    "type": "bool"
                }
            ],
            "name": "ApprovalForAll",
            "type": "event"
        },
        {
            "anonymous": false,
            "inputs": [
                {
                    "indexed": false,
                    "internalType": "address",
                    "name": "sender",
                    "type": "address"
                },
                {
                    "indexed": false,
                    "internalType": "uint256",
                    "name": "tokenId",
                    "type": "uint256"
                }
            ],
            "name": "NewEpicNFTMinted",
            "type": "event"
        },
        {
            "anonymous": false,
            "inputs": [
                {
                    "indexed": true,
                    "internalType": "address",
                    "name": "from",
                    "type": "address"
                },
                {
                    "indexed": true,
                    "internalType": "address",
                    "name": "to",
                    "type": "address"
                },
                {
                    "indexed": true,
                    "internalType": "uint256",
                    "name": "tokenId",
                    "type": "uint256"
                }
            ],
            "name": "Transfer",
            "type": "event"
        },
        {
            "inputs": [
                {
                    "internalType": "address",
                    "name": "to",
                    "type": "address"
                },
                {
                    "internalType": "uint256",
                    "name": "tokenId",
                    "type": "uint256"
                }
            ],
            "name": "approve",
            "outputs": [],
            "stateMutability": "nonpayable",
            "type": "function"
        },
        {
            "inputs": [
                {
                    "internalType": "address",
                    "name": "owner",
                    "type": "address"
                }
            ],
            "name": "balanceOf",
            "outputs": [
                {
                    "internalType": "uint256",
                    "name": "",
                    "type": "uint256"
                }
            ],
            "stateMutability": "view",
            "type": "function"
        },
        {
            "inputs": [
                {
                    "internalType": "uint256",
                    "name": "tokenId",
                    "type": "uint256"
                }
            ],
            "name": "getApproved",
            "outputs": [
                {
                    "internalType": "address",
                    "name": "",
                    "type": "address"
                }
            ],
            "stateMutability": "view",
            "type": "function"
        },
        {
            "inputs": [
                {
                    "internalType": "address",
                    "name": "owner",
                    "type": "address"
                },
                {
                    "internalType": "address",
                    "name": "operator",
                    "type": "address"
                }
            ],
            "name": "isApprovedForAll",
            "outputs": [
                {
                    "internalType": "bool",
                    "name": "",
                    "type": "bool"
                }
            ],
            "stateMutability": "view",
            "type": "function"
        },
        {
            "inputs": [],
            "name": "makeAnEpicNFT",
            "outputs": [],
            "stateMutability": "nonpayable",
            "type": "function"
        },
        {
            "inputs": [],
            "name": "name",
            "outputs": [
                {
                    "internalType": "string",
                    "name": "",
                    "type": "string"
                }
            ],
            "stateMutability": "view",
            "type": "function"
        },
        {
            "inputs": [
                {
                    "internalType": "uint256",
                    "name": "tokenId",
                    "type": "uint256"
                }
            ],
            "name": "ownerOf",
            "outputs": [
                {
                    "internalType": "address",
                    "name": "",
                    "type": "address"
                }
            ],
            "stateMutability": "view",
            "type": "function"
        },
        {
            "inputs": [
                {
                    "internalType": "uint256",
                    "name": "tokenId",
                    "type": "uint256"
                }
            ],
            "name": "pickRandomColor",
            "outputs": [
                {
                    "internalType": "string",
                    "name": "",
                    "type": "string"
                }
            ],
            "stateMutability": "view",
            "type": "function"
        },
        {
            "inputs": [
                {
                    "internalType": "uint256",
                    "name": "tokenId",
                    "type": "uint256"
                }
            ],
            "name": "pickRandomFirstWord",
            "outputs": [
                {
                    "internalType": "string",
                    "name": "",
                    "type": "string"
                }
            ],
            "stateMutability": "view",
            "type": "function"
        },
        {
            "inputs": [
                {
                    "internalType": "uint256",
                    "name": "tokenId",
                    "type": "uint256"
                }
            ],
            "name": "pickRandomSecondWord",
            "outputs": [
                {
                    "internalType": "string",
                    "name": "",
                    "type": "string"
                }
            ],
            "stateMutability": "view",
            "type": "function"
        },
        {
            "inputs": [
                {
                    "internalType": "uint256",
                    "name": "tokenId",
                    "type": "uint256"
                }
            ],
            "name": "pickRandomThirdWord",
            "outputs": [
                {
                    "internalType": "string",
                    "name": "",
                    "type": "string"
                }
            ],
            "stateMutability": "view",
            "type": "function"
        },
        {
            "inputs": [
                {
                    "internalType": "address",
                    "name": "from",
                    "type": "address"
                },
                {
                    "internalType": "address",
                    "name": "to",
                    "type": "address"
                },
                {
                    "internalType": "uint256",
                    "name": "tokenId",
                    "type": "uint256"
                }
            ],
            "name": "safeTransferFrom",
            "outputs": [],
            "stateMutability": "nonpayable",
            "type": "function"
        },
        {
            "inputs": [
                {
                    "internalType": "address",
                    "name": "from",
                    "type": "address"
                },
                {
                    "internalType": "address",
                    "name": "to",
                    "type": "address"
                },
                {
                    "internalType": "uint256",
                    "name": "tokenId",
                    "type": "uint256"
                },
                {
                    "internalType": "bytes",
                    "name": "data",
                    "type": "bytes"
                }
            ],
            "name": "safeTransferFrom",
            "outputs": [],
            "stateMutability": "nonpayable",
            "type": "function"
        },
        {
            "inputs": [
                {
                    "internalType": "address",
                    "name": "operator",
                    "type": "address"
                },
                {
                    "internalType": "bool",
                    "name": "approved",
                    "type": "bool"
                }
            ],
            "name": "setApprovalForAll",
            "outputs": [],
            "stateMutability": "nonpayable",
            "type": "function"
        },
        {
            "inputs": [
                {
                    "internalType": "bytes4",
                    "name": "interfaceId",
                    "type": "bytes4"
                }
            ],
            "name": "supportsInterface",
            "outputs": [
                {
                    "internalType": "bool",
                    "name": "",
                    "type": "bool"
                }
            ],
            "stateMutability": "view",
            "type": "function"
        },
        {
            "inputs": [],
            "name": "symbol",
            "outputs": [
                {
                    "internalType": "string",
                    "name": "",
                    "type": "string"
                }
            ],
            "stateMutability": "view",
            "type": "function"
        },
        {
            "inputs": [
                {
                    "internalType": "uint256",
                    "name": "tokenId",
                    "type": "uint256"
                }
            ],
            "name": "tokenURI",
            "outputs": [
                {
                    "internalType": "string",
                    "name": "",
                    "type": "string"
                }
            ],
            "stateMutability": "view",
            "type": "function"
        },
        {
            "inputs": [
                {
                    "internalType": "address",
                    "name": "from",
                    "type": "address"
                },
                {
                    "internalType": "address",
                    "name": "to",
                    "type": "address"
                },
                {
                    "internalType": "uint256",
                    "name": "tokenId",
                    "type": "uint256"
                }
            ],
            "name": "transferFrom",
            "outputs": [],
            "stateMutability": "nonpayable",
            "type": "function"
        }
    ],
    "bytecode": "0x60806040526040518060a0016040528060788152602001620048f760789139600890816200002e919062000b30565b5060405180610100016040528060ca81526020016200496f60ca9139600990816200005a919062000b30565b5060405180606001604052806040518060400160405280600681526020017f324444324646000000000000000000000000000000000000000000000000000081525081526020016040518060400160405280600681526020017f343545373733000000000000000000000000000000000000000000000000000081525081526020016040518060400160405280600681526020017f4646444430300000000000000000000000000000000000000000000000000000815250815250600a9060036200012792919062000709565b5060405180602001604052806040518060400160405280600581526020017f746f646179000000000000000000000000000000000000000000000000000000815250815250600b9060016200017e92919062000769565b5060405180602001604052806040518060400160405280600581526020017f4977696c6c000000000000000000000000000000000000000000000000000000815250815250600c906001620001d592919062000769565b50604051806101e001604052806040518060400160405280600481526020017f466172740000000000000000000000000000000000000000000000000000000081525081526020016040518060400160405280600381526020017f506f6f000000000000000000000000000000000000000000000000000000000081525081526020016040518060400160405280600381526020017f506565000000000000000000000000000000000000000000000000000000000081525081526020016040518060400160405280600881526020017f4d6564697461746500000000000000000000000000000000000000000000000081525081526020016040518060400160405280600881526020017f536574476f616c7300000000000000000000000000000000000000000000000081525081526020016040518060400160405280600a81526020017f436172654d7973656c660000000000000000000000000000000000000000000081525081526020016040518060400160405280600a81526020017f4265477261746566756c0000000000000000000000000000000000000000000081525081526020016040518060400160405280600781526020017f426547726561740000000000000000000000000000000000000000000000000081525081526020016040518060400160405280600581526020017f4c6561726e00000000000000000000000000000000000000000000000000000081525081526020016040518060400160405280600881526020017f5468616e6b4d6f6d00000000000000000000000000000000000000000000000081525081526020016040518060400160405280600881526020017f5468616e6b44616400000000000000000000000000000000000000000000000081525081526020016040518060400160405280600881526020017f457865726369736500000000000000000000000000000000000000000000000081525081526020016040518060400160405280600581526020017f466f63757300000000000000000000000000000000000000000000000000000081525081526020016040518060400160405280600781526020017f5265666c6563740000000000000000000000000000000000000000000000000081525081526020016040518060400160405280600781526020017f4a6f75726e616c00000000000000000000000000000000000000000000000000815250815250600d90600f62000567929190620007c9565b503480156200057557600080fd5b506040518060400160405280600981526020017f416374696f6e4e465400000000000000000000000000000000000000000000008152506040518060400160405280600681526020017f414354494f4e00000000000000000000000000000000000000000000000000008152508160009081620005f3919062000b30565b50806001908162000605919062000b30565b50505062000637604051806080016040528060488152602001620048af604891396200063d60201b620010e51760201c565b62000cca565b620006dd8160405160240162000654919062000ca6565b6040516020818303038152906040527f41304fac000000000000000000000000000000000000000000000000000000007bffffffffffffffffffffffffffffffffffffffffffffffffffffffff19166020820180517bffffffffffffffffffffffffffffffffffffffffffffffffffffffff8381831617835250505050620006e060201b60201c565b50565b60008151905060006a636f6e736f6c652e6c6f679050602083016000808483855afa5050505050565b82805482825590600052602060002090810192821562000756579160200282015b828111156200075557825182908162000744919062000b30565b50916020019190600101906200072a565b5b50905062000765919062000829565b5090565b828054828255906000526020600020908101928215620007b6579160200282015b82811115620007b5578251829081620007a4919062000b30565b50916020019190600101906200078a565b5b509050620007c5919062000829565b5090565b82805482825590600052602060002090810192821562000816579160200282015b828111156200081557825182908162000804919062000b30565b5091602001919060010190620007ea565b5b50905062000825919062000829565b5090565b5b808211156200084d576000818162000843919062000851565b506001016200082a565b5090565b5080546200085f906200091f565b6000825580601f1062000873575062000894565b601f01602090049060005260206000209081019062000893919062000897565b5b50565b5b80821115620008b257600081600090555060010162000898565b5090565b600081519050919050565b7f4e487b7100000000000000000000000000000000000000000000000000000000600052604160045260246000fd5b7f4e487b7100000000000000000000000000000000000000000000000000000000600052602260045260246000fd5b600060028204905060018216806200093857607f821691505b6020821081036200094e576200094d620008f0565b5b50919050565b60008190508160005260206000209050919050565b60006020601f8301049050919050565b600082821b905092915050565b600060088302620009b87fffffffffffffffffffffffffffffffffffffffffffffffffffffffffffffffff8262000979565b620009c4868362000979565b95508019841693508086168417925050509392505050565b6000819050919050565b6000819050919050565b600062000a1162000a0b62000a0584620009dc565b620009e6565b620009dc565b9050919050565b6000819050919050565b62000a2d83620009f0565b62000a4562000a3c8262000a18565b84845462000986565b825550505050565b600090565b62000a5c62000a4d565b62000a6981848462000a22565b505050565b5b8181101562000a915762000a8560008262000a52565b60018101905062000a6f565b5050565b601f82111562000ae05762000aaa8162000954565b62000ab58462000969565b8101602085101562000ac5578190505b62000add62000ad48562000969565b83018262000a6e565b50505b505050565b600082821c905092915050565b600062000b056000198460080262000ae5565b1980831691505092915050565b600062000b20838362000af2565b9150826002028217905092915050565b62000b3b82620008b6565b67ffffffffffffffff81111562000b575762000b56620008c1565b5b62000b6382546200091f565b62000b7082828562000a95565b600060209050601f83116001811462000ba8576000841562000b93578287015190505b62000b9f858262000b12565b86555062000c0f565b601f19841662000bb88662000954565b60005b8281101562000be25784890151825560018201915060208501945060208101905062000bbb565b8683101562000c02578489015162000bfe601f89168262000af2565b8355505b6001600288020188555050505b505050505050565b600082825260208201905092915050565b60005b8381101562000c4857808201518184015260208101905062000c2b565b60008484015250505050565b6000601f19601f8301169050919050565b600062000c7282620008b6565b62000c7e818562000c17565b935062000c9081856020860162000c28565b62000c9b8162000c54565b840191505092915050565b6000602082019050818103600083015262000cc2818462000c65565b905092915050565b613bd58062000cda6000396000f3fe608060405234801561001057600080fd5b50600436106101165760003560e01c806370a08231116100a2578063b88d4fde11610071578063b88d4fde14610317578063c575757a14610333578063c87b56dd14610363578063de9d132f14610393578063e985e9c51461039d57610116565b806370a082311461027d57806395d89b41146102ad578063a22cb465146102cb578063b187301f146102e757610116565b806323b872dd116100e957806323b872dd146101b55780632de38d68146101d157806342842e0e14610201578063514dc8c61461021d5780636352211e1461024d57610116565b806301ffc9a71461011b57806306fdde031461014b578063081812fc14610169578063095ea7b314610199575b600080fd5b61013560048036038101906101309190612444565b6103cd565b604051610142919061248c565b60405180910390f35b6101536104af565b6040516101609190612537565b60405180910390f35b610183600480360381019061017e919061258f565b610541565b60405161019091906125fd565b60405180910390f35b6101b360048036038101906101ae9190612644565b610587565b005b6101cf60048036038101906101ca9190612684565b61069e565b005b6101eb60048036038101906101e6919061258f565b6106fe565b6040516101f89190612537565b60405180910390f35b61021b60048036038101906102169190612684565b6107f6565b005b6102376004803603810190610232919061258f565b610816565b6040516102449190612537565b60405180910390f35b6102676004803603810190610262919061258f565b61090e565b60405161027491906125fd565b60405180910390f35b610297600480360381019061029291906126d7565b610994565b6040516102a49190612713565b60405180910390f35b6102b5610a4b565b6040516102c29190612537565b60405180910390f35b6102e560048036038101906102e0919061275a565b610add565b005b61030160048036038101906102fc919061258f565b610af3565b60405161030e9190612537565b60405180910390f35b610331600480360381019061032c91906128cf565b610beb565b005b61034d6004803603810190610348919061258f565b610c4d565b60405161035a9190612537565b60405180910390f35b61037d6004803603810190610378919061258f565b610d45565b60405161038a9190612537565b60405180910390f35b61039b610e57565b005b6103b760048036038101906103b29190612952565b611051565b6040516103c4919061248c565b60405180910390f35b60007f80ac58cd000000000000000000000000000000000000000000000000000000007bffffffffffffffffffffffffffffffffffffffffffffffffffffffff1916827bffffffffffffffffffffffffffffffffffffffffffffffffffffffff1916148061049857507f5b5e139f000000000000000000000000000000000000000000000000000000007bffffffffffffffffffffffffffffffffffffffffffffffffffffffff1916827bffffffffffffffffffffffffffffffffffffffffffffffffffffffff1916145b806104a857506104a78261117e565b5b9050919050565b6060600080546104be906129c1565b80601f01602080910402602001604051908101604052809291908181526020018280546104ea906129c1565b80156105375780601f1061050c57610100808354040283529160200191610537565b820191906000526020600020905b81548152906001019060200180831161051a57829003601f168201915b5050505050905090565b600061054c826111e8565b6004600083815260200190815260200160002060009054906101000a900473ffffffffffffffffffffffffffffffffffffffff169050919050565b60006105928261090e565b90508073ffffffffffffffffffffffffffffffffffffffff168373ffffffffffffffffffffffffffffffffffffffff1603610602576040517f08c379a00000000000000000000000000000000000000000000000000000000081526004016105f990612a64565b60405180910390fd5b8073ffffffffffffffffffffffffffffffffffffffff16610621611233565b73ffffffffffffffffffffffffffffffffffffffff161480610650575061064f8161064a611233565b611051565b5b61068f576040517f08c379a000000000000000000000000000000000000000000000000000000000815260040161068690612af6565b60405180910390fd5b610699838361123b565b505050565b6106af6106a9611233565b826112f4565b6106ee576040517f08c379a00000000000000000000000000000000000000000000000000000000081526004016106e590612b88565b60405180910390fd5b6106f9838383611389565b505050565b6060600061073261070e84611682565b60405160200161071e9190612c30565b604051602081830303815290604052611750565b9050600b80549050816107459190612c81565b9050600b818154811061075b5761075a612cb2565b5b906000526020600020018054610770906129c1565b80601f016020809104026020016040519081016040528092919081815260200182805461079c906129c1565b80156107e95780601f106107be576101008083540402835291602001916107e9565b820191906000526020600020905b8154815290600101906020018083116107cc57829003601f168201915b5050505050915050919050565b61081183838360405180602001604052806000815250610beb565b505050565b6060600061084a61082684611682565b6040516020016108369190612d2d565b604051602081830303815290604052611750565b9050600a805490508161085d9190612c81565b9050600a818154811061087357610872612cb2565b5b906000526020600020018054610888906129c1565b80601f01602080910402602001604051908101604052809291908181526020018280546108b4906129c1565b80156109015780601f106108d657610100808354040283529160200191610901565b820191906000526020600020905b8154815290600101906020018083116108e457829003601f168201915b5050505050915050919050565b60008061091a83611783565b9050600073ffffffffffffffffffffffffffffffffffffffff168173ffffffffffffffffffffffffffffffffffffffff160361098b576040517f08c379a000000000000000000000000000000000000000000000000000000000815260040161098290612d9b565b60405180910390fd5b80915050919050565b60008073ffffffffffffffffffffffffffffffffffffffff168273ffffffffffffffffffffffffffffffffffffffff1603610a04576040517f08c379a00000000000000000000000000000000000000000000000000000000081526004016109fb90612e2d565b60405180910390fd5b600360008373ffffffffffffffffffffffffffffffffffffffff1673ffffffffffffffffffffffffffffffffffffffff168152602001908152602001600020549050919050565b606060018054610a5a906129c1565b80601f0160208091040260200160405190810160405280929190818152602001828054610a86906129c1565b8015610ad35780601f10610aa857610100808354040283529160200191610ad3565b820191906000526020600020905b815481529060010190602001808311610ab657829003601f168201915b5050505050905090565b610aef610ae8611233565b83836117c0565b5050565b60606000610b27610b0384611682565b604051602001610b139190612e99565b604051602081830303815290604052611750565b9050600c8054905081610b3a9190612c81565b9050600c8181548110610b5057610b4f612cb2565b5b906000526020600020018054610b65906129c1565b80601f0160208091040260200160405190810160405280929190818152602001828054610b91906129c1565b8015610bde5780601f10610bb357610100808354040283529160200191610bde565b820191906000526020600020905b815481529060010190602001808311610bc157829003601f168201915b5050505050915050919050565b610bfc610bf6611233565b836112f4565b610c3b576040517f08c379a0000000000000000000000000000000000000000000000000000000008152600401610c3290612b88565b60405180910390fd5b610c478484848461192c565b50505050565b60606000610c81610c5d84611682565b604051602001610c6d9190612f07565b604051602081830303815290604052611750565b9050600d8054905081610c949190612c81565b9050600d8181548110610caa57610ca9612cb2565b5b906000526020600020018054610cbf906129c1565b80601f0160208091040260200160405190810160405280929190818152602001828054610ceb906129c1565b8015610d385780601f10610d0d57610100808354040283529160200191610d38565b820191906000526020600020905b815481529060010190602001808311610d1b57829003601f168201915b5050505050915050919050565b6060610d50826111e8565b6000600660008481526020019081526020016000208054610d70906129c1565b80601f0160208091040260200160405190810160405280929190818152602001828054610d9c906129c1565b8015610de95780601f10610dbe57610100808354040283529160200191610de9565b820191906000526020600020905b815481529060010190602001808311610dcc57829003601f168201915b505050505090506000610dfa611988565b90506000815103610e0f578192505050610e52565b600082511115610e44578082604051602001610e2c929190612f29565b60405160208183030381529060405292505050610e52565b610e4d8461199f565b925050505b919050565b6000610e636007611a07565b90506000610e7082610816565b90506000610e7d836106fe565b90506000610e8a84610af3565b90506000610e9785610c4d565b90506000838383604051602001610eb093929190612f4d565b60405160208183030381529060405290506000600886600984604051602001610edc9493929190613062565b60405160208183030381529060405290506000610f2183610efc84611a15565b604051602001610f0d929190613227565b604051602081830303815290604052611a15565b9050600081604051602001610f3691906132b8565b6040516020818303038152906040529050610f856040518060400160405280601581526020017f0a2d2d2d2d2d2d2d2d2d2d2d2d2d2d2d2d2d2d2d2d00000000000000000000008152506110e5565b610f8e816110e5565b610fcc6040518060400160405280601581526020017f2d2d2d2d2d2d2d2d2d2d2d2d2d2d2d2d2d2d2d2d0a00000000000000000000008152506110e5565b610fd6338a611b8d565b610fe08982611bab565b610fea6007611c18565b61100d604051806060016040528060258152602001613b3b602591398a33611c2e565b7febb98688741ffa4c7589bf325de30cf7becb63de567842e1ccdb6cb949fdc82c338a60405161103e9291906132da565b60405180910390a1505050505050505050565b6000600560008473ffffffffffffffffffffffffffffffffffffffff1673ffffffffffffffffffffffffffffffffffffffff16815260200190815260200160002060008373ffffffffffffffffffffffffffffffffffffffff1673ffffffffffffffffffffffffffffffffffffffff16815260200190815260200160002060009054906101000a900460ff16905092915050565b61117b816040516024016110f99190612537565b6040516020818303038152906040527f41304fac000000000000000000000000000000000000000000000000000000007bffffffffffffffffffffffffffffffffffffffffffffffffffffffff19166020820180517bffffffffffffffffffffffffffffffffffffffffffffffffffffffff8381831617835250505050611ccd565b50565b60007f01ffc9a7000000000000000000000000000000000000000000000000000000007bffffffffffffffffffffffffffffffffffffffffffffffffffffffff1916827bffffffffffffffffffffffffffffffffffffffffffffffffffffffff1916149050919050565b6111f181611cf6565b611230576040517f08c379a000000000000000000000000000000000000000000000000000000000815260040161122790612d9b565b60405180910390fd5b50565b600033905090565b816004600083815260200190815260200160002060006101000a81548173ffffffffffffffffffffffffffffffffffffffff021916908373ffffffffffffffffffffffffffffffffffffffff160217905550808273ffffffffffffffffffffffffffffffffffffffff166112ae8361090e565b73ffffffffffffffffffffffffffffffffffffffff167f8c5be1e5ebec7d5bd14f71427d1e84f3dd0314c0f7b2291e5b200ac8c7c3b92560405160405180910390a45050565b6000806113008361090e565b90508073ffffffffffffffffffffffffffffffffffffffff168473ffffffffffffffffffffffffffffffffffffffff16148061134257506113418185611051565b5b8061138057508373ffffffffffffffffffffffffffffffffffffffff1661136884610541565b73ffffffffffffffffffffffffffffffffffffffff16145b91505092915050565b8273ffffffffffffffffffffffffffffffffffffffff166113a98261090e565b73ffffffffffffffffffffffffffffffffffffffff16146113ff576040517f08c379a00000000000000000000000000000000000000000000000000000000081526004016113f690613375565b60405180910390fd5b600073ffffffffffffffffffffffffffffffffffffffff168273ffffffffffffffffffffffffffffffffffffffff160361146e576040517f08c379a000000000000000000000000000000000000000000000000000000000815260040161146590613407565b60405180910390fd5b61147b8383836001611d37565b8273ffffffffffffffffffffffffffffffffffffffff1661149b8261090e565b73ffffffffffffffffffffffffffffffffffffffff16146114f1576040517f08c379a00000000000000000000000000000000000000000000000000000000081526004016114e890613375565b60405180910390fd5b6004600082815260200190815260200160002060006101000a81549073ffffffffffffffffffffffffffffffffffffffff02191690556001600360008573ffffffffffffffffffffffffffffffffffffffff1673ffffffffffffffffffffffffffffffffffffffff168152602001908152602001600020600082825403925050819055506001600360008473ffffffffffffffffffffffffffffffffffffffff1673ffffffffffffffffffffffffffffffffffffffff16815260200190815260200160002060008282540192505081905550816002600083815260200190815260200160002060006101000a81548173ffffffffffffffffffffffffffffffffffffffff021916908373ffffffffffffffffffffffffffffffffffffffff160217905550808273ffffffffffffffffffffffffffffffffffffffff168473ffffffffffffffffffffffffffffffffffffffff167fddf252ad1be2c89b69c2b068fc378daa952ba7f163c4a11628f55a4df523b3ef60405160405180910390a461167d8383836001611e5d565b505050565b60606000600161169184611e63565b01905060008167ffffffffffffffff8111156116b0576116af6127a4565b5b6040519080825280601f01601f1916602001820160405280156116e25781602001600182028036833780820191505090505b509050600082602001820190505b600115611745578080600190039150507f3031323334353637383961626364656600000000000000000000000000000000600a86061a8153600a858161173957611738612c52565b5b049450600085036116f0575b819350505050919050565b6000816040516020016117639190613427565b6040516020818303038152906040528051906020012060001c9050919050565b60006002600083815260200190815260200160002060009054906101000a900473ffffffffffffffffffffffffffffffffffffffff169050919050565b8173ffffffffffffffffffffffffffffffffffffffff168373ffffffffffffffffffffffffffffffffffffffff160361182e576040517f08c379a00000000000000000000000000000000000000000000000000000000081526004016118259061348a565b60405180910390fd5b80600560008573ffffffffffffffffffffffffffffffffffffffff1673ffffffffffffffffffffffffffffffffffffffff16815260200190815260200160002060008473ffffffffffffffffffffffffffffffffffffffff1673ffffffffffffffffffffffffffffffffffffffff16815260200190815260200160002060006101000a81548160ff0219169083151502179055508173ffffffffffffffffffffffffffffffffffffffff168373ffffffffffffffffffffffffffffffffffffffff167f17307eab39ab6107e8899845ad3d59bd9653f200f220920489ca2b5937696c318360405161191f919061248c565b60405180910390a3505050565b611937848484611389565b61194384848484611fb6565b611982576040517f08c379a00000000000000000000000000000000000000000000000000000000081526004016119799061351c565b60405180910390fd5b50505050565b606060405180602001604052806000815250905090565b60606119aa826111e8565b60006119b4611988565b905060008151116119d457604051806020016040528060008152506119ff565b806119de84611682565b6040516020016119ef929190612f29565b6040516020818303038152906040525b915050919050565b600081600001549050919050565b60606000825103611a3757604051806020016040528060008152509050611b88565b6000604051806060016040528060408152602001613b606040913990506000600360028551611a66919061356b565b611a70919061359f565b6004611a7c91906135d0565b90506000602082611a8d919061356b565b67ffffffffffffffff811115611aa657611aa56127a4565b5b6040519080825280601f01601f191660200182016040528015611ad85781602001600182028036833780820191505090505b509050818152600183018586518101602084015b81831015611b47576003830192508251603f8160121c168501518253600182019150603f81600c1c168501518253600182019150603f8160061c168501518253600182019150603f8116850151825360018201915050611aec565b600389510660018114611b615760028114611b7157611b7c565b613d3d60f01b6002830352611b7c565b603d60f81b60018303525b50505050508093505050505b919050565b611ba782826040518060200160405280600081525061213d565b5050565b611bb482611cf6565b611bf3576040517f08c379a0000000000000000000000000000000000000000000000000000000008152600401611bea90613684565b60405180910390fd5b80600660008481526020019081526020016000209081611c13919061383b565b505050565b6001816000016000828254019250508190555050565b611cc8838383604051602401611c469392919061390d565b6040516020818303038152906040527f1c7ec448000000000000000000000000000000000000000000000000000000007bffffffffffffffffffffffffffffffffffffffffffffffffffffffff19166020820180517bffffffffffffffffffffffffffffffffffffffffffffffffffffffff8381831617835250505050611ccd565b505050565b60008151905060006a636f6e736f6c652e6c6f679050602083016000808483855afa5050505050565b60008073ffffffffffffffffffffffffffffffffffffffff16611d1883611783565b73ffffffffffffffffffffffffffffffffffffffff1614159050919050565b6001811115611e5757600073ffffffffffffffffffffffffffffffffffffffff168473ffffffffffffffffffffffffffffffffffffffff1614611dcb5780600360008673ffffffffffffffffffffffffffffffffffffffff1673ffffffffffffffffffffffffffffffffffffffff1681526020019081526020016000206000828254611dc3919061394b565b925050819055505b600073ffffffffffffffffffffffffffffffffffffffff168373ffffffffffffffffffffffffffffffffffffffff1614611e565780600360008573ffffffffffffffffffffffffffffffffffffffff1673ffffffffffffffffffffffffffffffffffffffff1681526020019081526020016000206000828254611e4e919061356b565b925050819055505b5b50505050565b50505050565b600080600090507a184f03e93ff9f4daa797ed6e38ed64bf6a1f0100000000000000008310611ec1577a184f03e93ff9f4daa797ed6e38ed64bf6a1f0100000000000000008381611eb757611eb6612c52565b5b0492506040810190505b6d04ee2d6d415b85acef81000000008310611efe576d04ee2d6d415b85acef81000000008381611ef457611ef3612c52565b5b0492506020810190505b662386f26fc100008310611f2d57662386f26fc100008381611f2357611f22612c52565b5b0492506010810190505b6305f5e1008310611f56576305f5e1008381611f4c57611f4b612c52565b5b0492506008810190505b6127108310611f7b576127108381611f7157611f70612c52565b5b0492506004810190505b60648310611f9e5760648381611f9457611f93612c52565b5b0492506002810190505b600a8310611fad576001810190505b80915050919050565b6000611fd78473ffffffffffffffffffffffffffffffffffffffff16612198565b15612130578373ffffffffffffffffffffffffffffffffffffffff1663150b7a02612000611233565b8786866040518563ffffffff1660e01b815260040161202294939291906139d4565b6020604051808303816000875af192505050801561205e57506040513d601f19601f8201168201806040525081019061205b9190613a35565b60015b6120e0573d806000811461208e576040519150601f19603f3d011682016040523d82523d6000602084013e612093565b606091505b5060008151036120d8576040517f08c379a00000000000000000000000000000000000000000000000000000000081526004016120cf9061351c565b60405180910390fd5b805181602001fd5b63150b7a0260e01b7bffffffffffffffffffffffffffffffffffffffffffffffffffffffff1916817bffffffffffffffffffffffffffffffffffffffffffffffffffffffff191614915050612135565b600190505b949350505050565b61214783836121bb565b6121546000848484611fb6565b612193576040517f08c379a000000000000000000000000000000000000000000000000000000000815260040161218a9061351c565b60405180910390fd5b505050565b6000808273ffffffffffffffffffffffffffffffffffffffff163b119050919050565b600073ffffffffffffffffffffffffffffffffffffffff168273ffffffffffffffffffffffffffffffffffffffff160361222a576040517f08c379a000000000000000000000000000000000000000000000000000000000815260040161222190613aae565b60405180910390fd5b61223381611cf6565b15612273576040517f08c379a000000000000000000000000000000000000000000000000000000000815260040161226a90613b1a565b60405180910390fd5b612281600083836001611d37565b61228a81611cf6565b156122ca576040517f08c379a00000000000000000000000000000000000000000000000000000000081526004016122c190613b1a565b60405180910390fd5b6001600360008473ffffffffffffffffffffffffffffffffffffffff1673ffffffffffffffffffffffffffffffffffffffff16815260200190815260200160002060008282540192505081905550816002600083815260200190815260200160002060006101000a81548173ffffffffffffffffffffffffffffffffffffffff021916908373ffffffffffffffffffffffffffffffffffffffff160217905550808273ffffffffffffffffffffffffffffffffffffffff16600073ffffffffffffffffffffffffffffffffffffffff167fddf252ad1be2c89b69c2b068fc378daa952ba7f163c4a11628f55a4df523b3ef60405160405180910390a46123d4600083836001611e5d565b5050565b6000604051905090565b600080fd5b600080fd5b60007fffffffff0000000000000000000000000000000000000000000000000000000082169050919050565b612421816123ec565b811461242c57600080fd5b50565b60008135905061243e81612418565b92915050565b60006020828403121561245a576124596123e2565b5b60006124688482850161242f565b91505092915050565b60008115159050919050565b61248681612471565b82525050565b60006020820190506124a1600083018461247d565b92915050565b600081519050919050565b600082825260208201905092915050565b60005b838110156124e15780820151818401526020810190506124c6565b60008484015250505050565b6000601f19601f8301169050919050565b6000612509826124a7565b61251381856124b2565b93506125238185602086016124c3565b61252c816124ed565b840191505092915050565b6000602082019050818103600083015261255181846124fe565b905092915050565b6000819050919050565b61256c81612559565b811461257757600080fd5b50565b60008135905061258981612563565b92915050565b6000602082840312156125a5576125a46123e2565b5b60006125b38482850161257a565b91505092915050565b600073ffffffffffffffffffffffffffffffffffffffff82169050919050565b60006125e7826125bc565b9050919050565b6125f7816125dc565b82525050565b600060208201905061261260008301846125ee565b92915050565b612621816125dc565b811461262c57600080fd5b50565b60008135905061263e81612618565b92915050565b6000806040838503121561265b5761265a6123e2565b5b60006126698582860161262f565b925050602061267a8582860161257a565b9150509250929050565b60008060006060848603121561269d5761269c6123e2565b5b60006126ab8682870161262f565b93505060206126bc8682870161262f565b92505060406126cd8682870161257a565b9150509250925092565b6000602082840312156126ed576126ec6123e2565b5b60006126fb8482850161262f565b91505092915050565b61270d81612559565b82525050565b60006020820190506127286000830184612704565b92915050565b61273781612471565b811461274257600080fd5b50565b6000813590506127548161272e565b92915050565b60008060408385031215612771576127706123e2565b5b600061277f8582860161262f565b925050602061279085828601612745565b9150509250929050565b600080fd5b600080fd5b7f4e487b7100000000000000000000000000000000000000000000000000000000600052604160045260246000fd5b6127dc826124ed565b810181811067ffffffffffffffff821117156127fb576127fa6127a4565b5b80604052505050565b600061280e6123d8565b905061281a82826127d3565b919050565b600067ffffffffffffffff82111561283a576128396127a4565b5b612843826124ed565b9050602081019050919050565b82818337600083830152505050565b600061287261286d8461281f565b612804565b90508281526020810184848401111561288e5761288d61279f565b5b612899848285612850565b509392505050565b600082601f8301126128b6576128b561279a565b5b81356128c684826020860161285f565b91505092915050565b600080600080608085870312156128e9576128e86123e2565b5b60006128f78782880161262f565b94505060206129088782880161262f565b93505060406129198782880161257a565b925050606085013567ffffffffffffffff81111561293a576129396123e7565b5b612946878288016128a1565b91505092959194509250565b60008060408385031215612969576129686123e2565b5b60006129778582860161262f565b92505060206129888582860161262f565b9150509250929050565b7f4e487b7100000000000000000000000000000000000000000000000000000000600052602260045260246000fd5b600060028204905060018216806129d957607f821691505b6020821081036129ec576129eb612992565b5b50919050565b7f4552433732313a20617070726f76616c20746f2063757272656e74206f776e6560008201527f7200000000000000000000000000000000000000000000000000000000000000602082015250565b6000612a4e6021836124b2565b9150612a59826129f2565b604082019050919050565b60006020820190508181036000830152612a7d81612a41565b9050919050565b7f4552433732313a20617070726f76652063616c6c6572206973206e6f7420746f60008201527f6b656e206f776e6572206f7220617070726f76656420666f7220616c6c000000602082015250565b6000612ae0603d836124b2565b9150612aeb82612a84565b604082019050919050565b60006020820190508181036000830152612b0f81612ad3565b9050919050565b7f4552433732313a2063616c6c6572206973206e6f7420746f6b656e206f776e6560008201527f72206f7220617070726f76656400000000000000000000000000000000000000602082015250565b6000612b72602d836124b2565b9150612b7d82612b16565b604082019050919050565b60006020820190508181036000830152612ba181612b65565b9050919050565b600081905092915050565b7f46495253545f574f524400000000000000000000000000000000000000000000600082015250565b6000612be9600a83612ba8565b9150612bf482612bb3565b600a82019050919050565b6000612c0a826124a7565b612c148185612ba8565b9350612c248185602086016124c3565b80840191505092915050565b6000612c3b82612bdc565b9150612c478284612bff565b915081905092915050565b7f4e487b7100000000000000000000000000000000000000000000000000000000600052601260045260246000fd5b6000612c8c82612559565b9150612c9783612559565b925082612ca757612ca6612c52565b5b828206905092915050565b7f4e487b7100000000000000000000000000000000000000000000000000000000600052603260045260246000fd5b7f434f4c4f52000000000000000000000000000000000000000000000000000000600082015250565b6000612d17600583612ba8565b9150612d2282612ce1565b600582019050919050565b6000612d3882612d0a565b9150612d448284612bff565b915081905092915050565b7f4552433732313a20696e76616c696420746f6b656e2049440000000000000000600082015250565b6000612d856018836124b2565b9150612d9082612d4f565b602082019050919050565b60006020820190508181036000830152612db481612d78565b9050919050565b7f4552433732313a2061646472657373207a65726f206973206e6f74206120766160008201527f6c6964206f776e65720000000000000000000000000000000000000000000000602082015250565b6000612e176029836124b2565b9150612e2282612dbb565b604082019050919050565b60006020820190508181036000830152612e4681612e0a565b9050919050565b7f5345434f4e445f574f5244000000000000000000000000000000000000000000600082015250565b6000612e83600b83612ba8565b9150612e8e82612e4d565b600b82019050919050565b6000612ea482612e76565b9150612eb08284612bff565b915081905092915050565b7f54484952445f574f524400000000000000000000000000000000000000000000600082015250565b6000612ef1600a83612ba8565b9150612efc82612ebb565b600a82019050919050565b6000612f1282612ee4565b9150612f1e8284612bff565b915081905092915050565b6000612f358285612bff565b9150612f418284612bff565b91508190509392505050565b6000612f598286612bff565b9150612f658285612bff565b9150612f718284612bff565b9150819050949350505050565b60008190508160005260206000209050919050565b60008154612fa0816129c1565b612faa8186612ba8565b94506001821660008114612fc55760018114612fda5761300d565b60ff198316865281151582028601935061300d565b612fe385612f7e565b60005b8381101561300557815481890152600182019150602081019050612fe6565b838801955050505b50505092915050565b7f3c2f746578743e3c2f7376673e00000000000000000000000000000000000000600082015250565b600061304c600d83612ba8565b915061305782613016565b600d82019050919050565b600061306e8287612f93565b915061307a8286612bff565b91506130868285612f93565b91506130928284612bff565b915061309d8261303f565b915081905095945050505050565b7f7b226e616d65223a202200000000000000000000000000000000000000000000600082015250565b60006130e1600a83612ba8565b91506130ec826130ab565b600a82019050919050565b7f222c20226465736372697074696f6e223a202261637420746f6461792c20646f60008201527f206e6f74207761697420746d72772120736861726520796f757220726573756c60208201527f7473206f6e207477697474657220772f204076657263695f657468222c20226960408201527f6d616765223a2022646174613a696d6167652f7376672b786d6c3b626173653660608201527f342c000000000000000000000000000000000000000000000000000000000000608082015250565b60006131c5608283612ba8565b91506131d0826130f7565b608282019050919050565b7f227d000000000000000000000000000000000000000000000000000000000000600082015250565b6000613211600283612ba8565b915061321c826131db565b600282019050919050565b6000613232826130d4565b915061323e8285612bff565b9150613249826131b8565b91506132558284612bff565b915061326082613204565b91508190509392505050565b7f646174613a6170706c69636174696f6e2f6a736f6e3b6261736536342c000000600082015250565b60006132a2601d83612ba8565b91506132ad8261326c565b601d82019050919050565b60006132c382613295565b91506132cf8284612bff565b915081905092915050565b60006040820190506132ef60008301856125ee565b6132fc6020830184612704565b9392505050565b7f4552433732313a207472616e736665722066726f6d20696e636f72726563742060008201527f6f776e6572000000000000000000000000000000000000000000000000000000602082015250565b600061335f6025836124b2565b915061336a82613303565b604082019050919050565b6000602082019050818103600083015261338e81613352565b9050919050565b7f4552433732313a207472616e7366657220746f20746865207a65726f2061646460008201527f7265737300000000000000000000000000000000000000000000000000000000602082015250565b60006133f16024836124b2565b91506133fc82613395565b604082019050919050565b60006020820190508181036000830152613420816133e4565b9050919050565b60006134338284612bff565b915081905092915050565b7f4552433732313a20617070726f766520746f2063616c6c657200000000000000600082015250565b60006134746019836124b2565b915061347f8261343e565b602082019050919050565b600060208201905081810360008301526134a381613467565b9050919050565b7f4552433732313a207472616e7366657220746f206e6f6e20455243373231526560008201527f63656976657220696d706c656d656e7465720000000000000000000000000000602082015250565b60006135066032836124b2565b9150613511826134aa565b604082019050919050565b60006020820190508181036000830152613535816134f9565b9050919050565b7f4e487b7100000000000000000000000000000000000000000000000000000000600052601160045260246000fd5b600061357682612559565b915061358183612559565b92508282019050808211156135995761359861353c565b5b92915050565b60006135aa82612559565b91506135b583612559565b9250826135c5576135c4612c52565b5b828204905092915050565b60006135db82612559565b91506135e683612559565b92508282026135f481612559565b9150828204841483151761360b5761360a61353c565b5b5092915050565b7f45524337323155524953746f726167653a2055524920736574206f66206e6f6e60008201527f6578697374656e7420746f6b656e000000000000000000000000000000000000602082015250565b600061366e602e836124b2565b915061367982613612565b604082019050919050565b6000602082019050818103600083015261369d81613661565b9050919050565b60006020601f8301049050919050565b600082821b905092915050565b6000600883026136f17fffffffffffffffffffffffffffffffffffffffffffffffffffffffffffffffff826136b4565b6136fb86836136b4565b95508019841693508086168417925050509392505050565b6000819050919050565b600061373861373361372e84612559565b613713565b612559565b9050919050565b6000819050919050565b6137528361371d565b61376661375e8261373f565b8484546136c1565b825550505050565b600090565b61377b61376e565b613786818484613749565b505050565b5b818110156137aa5761379f600082613773565b60018101905061378c565b5050565b601f8211156137ef576137c081612f7e565b6137c9846136a4565b810160208510156137d8578190505b6137ec6137e4856136a4565b83018261378b565b50505b505050565b600082821c905092915050565b6000613812600019846008026137f4565b1980831691505092915050565b600061382b8383613801565b9150826002028217905092915050565b613844826124a7565b67ffffffffffffffff81111561385d5761385c6127a4565b5b61386782546129c1565b6138728282856137ae565b600060209050601f8311600181146138a55760008415613893578287015190505b61389d858261381f565b865550613905565b601f1984166138b386612f7e565b60005b828110156138db578489015182556001820191506020850194506020810190506138b6565b868310156138f857848901516138f4601f891682613801565b8355505b6001600288020188555050505b505050505050565b6000606082019050818103600083015261392781866124fe565b90506139366020830185612704565b61394360408301846125ee565b949350505050565b600061395682612559565b915061396183612559565b92508282039050818111156139795761397861353c565b5b92915050565b600081519050919050565b600082825260208201905092915050565b60006139a68261397f565b6139b0818561398a565b93506139c08185602086016124c3565b6139c9816124ed565b840191505092915050565b60006080820190506139e960008301876125ee565b6139f660208301866125ee565b613a036040830185612704565b8181036060830152613a15818461399b565b905095945050505050565b600081519050613a2f81612418565b92915050565b600060208284031215613a4b57613a4a6123e2565b5b6000613a5984828501613a20565b91505092915050565b7f4552433732313a206d696e7420746f20746865207a65726f2061646472657373600082015250565b6000613a986020836124b2565b9150613aa382613a62565b602082019050919050565b60006020820190508181036000830152613ac781613a8b565b9050919050565b7f4552433732313a20746f6b656e20616c7265616479206d696e74656400000000600082015250565b6000613b04601c836124b2565b9150613b0f82613ace565b602082019050919050565b60006020820190508181036000830152613b3381613af7565b905091905056fe416e204e465420772f20494420257320686173206265656e206d696e74656420746f2025734142434445464748494a4b4c4d4e4f505152535455565758595a6162636465666768696a6b6c6d6e6f707172737475767778797a303132333435363738392b2fa264697066735822122007c88e68391dba627c8bf9c28803d5bd8c6997c3d1e6a1c7be050ae2dbcd4f8b64736f6c6343000811003361637420746f6461792c20646f206e6f74207761697420746d72772120736861726520796f757220726573756c7473206f6e207477697474657220772f204076657263695f6574683c73766720786d6c6e733d27687474703a2f2f7777772e77332e6f72672f323030302f73766727207072657365727665417370656374526174696f3d27784d696e594d696e206d656574272076696577426f783d273020302033353020313030273e3c7374796c653e2e62617365207b2066696c6c3a20233b20666f6e742d66616d696c793a202661706f733b50726573732053746172742032502661706f733b3b20666f6e742d73697a653a20313470783b207d3c2f7374796c653e3c726563742077696474683d273130302527206865696768743d2731303025272066696c6c3d272332363236323627202f3e3c7465787420783d273530252720793d273530252720636c6173733d27626173652720646f6d696e616e742d626173656c696e653d276d6964646c652720746578742d616e63686f723d276d6964646c65273e",
    "linkReferences": {},
    "deployedLinkReferences": {}
}